:10000000A03B0020B55B000005C70100895B000034
:10001000895B0000895B0000895B00000000000034
:10002000000000000000000000000000C1540000BB
:10003000895B0000000000006D5400003DE20100FB
:1000400079550000D14C0100795500007955000028
:100050007955000079550000795500007955000068
:100060007955000079550000795500007955000058
:100070007955000079550000795500007955000048
:100080007955000079550000795500007955000038
:100090007955000079550000795500007955000028
:1000A0007955000079550000795500007955000018
:1000B0007955000079550000795500007955000008
:1000C00079550000795500007955000079550000F8
:1000D00079550000795500007955000079550000E8
:1000E00079550000795500007955000079550000D8
:1000F00079550000795500007955000079550000C8
:1001000053B94AB9002908BF00281CBF4FF0FF317E
:100110004FF0FF3000F074B9ADF1080C6DE904CE7A
:1001200000F006F8DDF804E0DDE9022304B07047D2
:100130002DE9F047089E04468846002B40F0858054
:100140008A42154648D9B2FA82F24AB1C2F1200772
:1001500001FA02F320FA07F7954047EA03089440B2
:100160004FEA154E230CB8FBFEF71FFA85FC0EFB79
:10017000178843EA084307FB0CF1994209D9EB18A9
:1001800007F1FF3080F0E380994240F2E080023FC7
:100190002B445B1AA4B2B3FBFEF00EFB103344EA0F
:1001A000034400FB0CFCA44509D92C1900F1FF33D2
:1001B00080F0CB80A44540F2C88002382C4440EA4D
:1001C0000740A4EB0C0400271EB1D4400023C6E96D
:1001D00000433946BDE8F087002A53D0B2FA82F2D4
:1001E000002A40F0B680491B4FEA154E1FFA85F8E9
:1001F0000127B1FBFEFC230C0EFB1C1143EA01435B
:1002000008FB0CF1994207D9EB180CF1FF3002D230
:10021000994200F2EC808446591AA3B2B1FBFEF079
:100220000EFB101443EA044408FB00F8A04507D96C
:100230002C1900F1FF3302D2A04500F2DC801846F1
:10024000A4EB080440EA0C40BEE78B4208D9002E1C
:1002500078D00027C6E9000138463946BDE8F08766
:10026000B3FA83F77FB98B4202D3824200F2BD809A
:10027000841A61EB030301209846002EA9D0C6E939
:100280000048A6E7FFDEC7F12005BB4022FA05FCC7
:100290004CEA030C01FA07F420FA05F821FA05F3F9
:1002A0004FEA1C4E48EA0404B3FBFEF9210C0EFB96
:1002B00019331FFA8CF841EA034309FB08FA9A45FF
:1002C00002FA07F200FA07F10BD91CEB030309F15C
:1002D000FF3080F088809A4540F28580A9F10209BC
:1002E0006344A3EB0A03A4B2B3FBFEF00EFB10338E
:1002F00044EA034400FB08F8A04508D91CEB0404B9
:1003000000F1FF336BD2A04569D90238644440EA5A
:100310000940A4EB0804A0FB02894C45C6464B46A5
:1003200054D351D0002E69D0B1EB0E0264EB03041C
:1003300004FA05F522FA07F3FC401D43C6E9005410
:10034000002746E73746304643E7184637E7074673
:100350001FE7C2F1200320FA03F7954001FA02F0EB
:1003600021FA03F34FEA154E3843010CB3FBFEF7B5
:100370001FFA85F80EFB173341EA034107FB08F328
:100380008B4204FA02F407D9691807F1FF3C28D21E
:100390008B4226D9023F2944CB1A81B2B3FBFEF02F
:1003A0000EFB103341EA034100FB08F38B4207D9EF
:1003B000691800F1FF3C10D28B420ED90238294453
:1003C000C91A40EA074714E74145ABD2B8EB020E21
:1003D00069EB0C0201381346A4E76046F0E71846C3
:1003E00095E76746D8E781467BE7384645E7ACF1B5
:1003F000020C2B4410E702382C4421E73746E8E68C
:10040000704700BF000000002DE9F0410F46D0E921
:100410000B15866A4C193034A642904618D8144DF4
:1004200011A3D3E90023A1FB0501FFF769FEA41B7B
:1004300020F07F4038600CA3D3E90023A5FB040122
:10044000FFF75EFE20F07F40C8F80000BDE8F081B5
:10045000074C05A3D3E90023A6FB0401FFF750FED8
:100460003035E5E7AFF300808D49FD1A0700000045
:1004700000CA9A3B000000002DE9F04F604C94F850
:100480006A508DB005F00105002848D0002D40F0DD
:10049000B38094F82500FF2300F0030084F8263091
:1004A00013F0DCFD94F86A00420729D494F829205F
:1004B00094F8353004EB820204EB8303D76AD3F857
:1004C000388087B139464E4810F012F83B785B0609
:1004D00005D506210AF09EFF002800F0278241463C
:1004E000474810F005F83B7813F00E0F40F0698193
:1004F000236A002B00F090800C200DB0BDE8F08F37
:10050000C0F3C0002A4604F16B0113F03FFFFF283F
:1005100084F82600CAD0284613F0E6FDC6E7002D71
:100520006AD0236A53B193F8202042F0020283F884
:100530002020236A93F82030D807DDD430480FF00C
:1005400061F984420CD040F6BF132E4A2E492F4841
:100550001AF0CFFF404080F311884FF0030002DF14
:1005600094F82430D9070BAD0ED502220B9203214B
:100570000095274B012200200CF0F4FA29460FF0D9
:1005800019F9002840F02C8202210A460B910095AF
:1005900003211F4B00200CF0E5FA29460FF00AF961
:1005A000002840F0D7811B480FF068F9002840F080
:1005B000C38113480FF032F984420CD040F6E113A6
:1005C000104A114911481AF094FF404080F31188F5
:1005D0004FF0030002DF236A0BB10FF067FD94F8C0
:1005E0006A306FF3000384F86A30002010F05AF983
:1005F0000446002800F0968100200DB0BDE8F08F81
:100600001C1C0020D8FA0100E8FB010068F601007C
:10061000D1E60000381C00200FF03CF8814600288D
:1006200000F0B1810FF042F88246002800F0B0815E
:1006300010F01CFD0546002800F0A781406F4FF622
:10064000FF732B8505F11C0B002800F0988105F144
:10065000680205F164010AF0E9FEB5F8603095F82A
:100660003920D14995F87A6095F83C000B4002F0AA
:100670003F0295F8D81062F07F0243F4887326F0A9
:10068000070C43F0010385F83920C84AA5F860300B
:100690000026062320F0070021F0070185F87AC024
:1006A0004FF01B1CC5E916C2A5F8C03085F83C0008
:1006B00085F8D8106E67A5F87860EE852E6385F80A
:1006C0003B60C5E912662E65A5F8C460A5F8C86050
:1006D000A5F8D060A5F8CC60A5F8E46085F8E660E0
:1006E000C5F80861A5F80C61A5F820610DF08AFF36
:1006F00095F83A2195F87A3095F886E195F8AEC1EB
:10070000A5F83861C5E94A0195F86611A5F8406178
:1007100022F0030223F0180366F3451E66F3C30CB0
:1007200021F0070185F83A2185F87A30002200236C
:1007300085F886E185F8AEC185F86611C5E94C23D8
:1007400085F84361A5F8646185F8D960A5F88461EE
:10075000C5F8E060A5F8AC61A5F8B861C5F84491AA
:1007600010F0D4FFA5F8D20010F0D6FFD5F8BC31B8
:100770008F4AA5F8D4001A40C5F8BC2110F0D2FF6A
:1007800095F8C03160F3020385F8C03110F0D0FF56
:1007900095F8C031C4F820B060F3C503C4E9189AD5
:1007A000C5F8D461C5E97366C5E9716685F8C031DD
:1007B0002E70C5E90566ED6114F0C2FF002840F017
:1007C000B78094F824300121C3F342030BA88DF8BD
:1007D0002C300AF09DFF30B9236A002B3FF48CAE19
:1007E0000FF064FC88E698F80110024638460FF0D6
:1007F00089FA704BE4610025312680B2A0FB030129
:10080000C4E9026566A3D3E900232570C4E9055550
:100810006560FFF775FC2061B4F868800CF0EAF9B8
:100820000646B8F1000F07D13D7805F00F05A5F198
:100830000105B5FA85F56D0994F82400236965F37F
:10084000000010F0010584F824002CD0DFF88C8122
:1008500059490493002002250AAF0193059106949B
:1008600003212A46CDE90787CDE9020000903346EF
:100870000A950CF0EDF839460EF09CFF0028ABD13C
:100880004E4905914AF2D8320092CDE90787069485
:10089000CDE90300CDE901003346012203210A9589
:1008A0000CF0D6F82BE04648464ADFF830C10694F3
:1008B0001FFA88F8A8FB0001912707FB081103F233
:1008C0004717176004933C4B09924FF002084FF60C
:1008D000FF7E05930AAF32A3D3E900230295CDF83A
:1008E0002880CDE907C7CDF80CE0FFF709FC4246A8
:1008F000CDE900503346284603210CF04FF8394625
:100900000EF058FF00287FF467AF94F86A3043F088
:10091000010384F86A300FF0C5FF044600287FF415
:100920006BAE012013F07CFB2046E6E51220E4E5E7
:100930000FF0BCFB0320E0E540F6DE13224A23491A
:1009400023481AF0D6FD404080F311884FF0030091
:1009500002DF2EE61F480EF061FF84423FF4CCAD6B
:1009600040F6D813184A1C4919481AF0C2FD4040F5
:1009700080F311884FF0030002DF0C20BDE505F184
:100980006C00686763E60720B7E550460EF094FEFA
:1009900048460EF085FE0720AFE500BFAFF30080AC
:1009A0008D49FD1A0700000080F8FFFF480148014B
:1009B0000000FFF600CA9A3B15FF000091FE000000
:1009C000002AE784901C0020D8FA0100E0F801001A
:1009D00068F601001C1C0020E8FB0100D1E60000C5
:1009E00004480EF01BFF84423FF486AD40F6CA1364
:1009F000B8E700BF1C1C0020F0B590F824308BB085
:100A0000C3F342030D46044601210DF123001646AF
:100A10008DF823300AF07CFE7178024628460FF0EC
:100A200071F91F4B80B2A0FB03011BA3D3E9002384
:100A3000FFF766FB23699842054620D21B1A002067
:100A4000184A194E0293A21AA6FB023217490190C6
:100A50009209002309AE0232CDE90516D2B2032174
:100A6000CDE9033300931846022709970CF062F88A
:100A700031460EF09FFE30B925610BB0F0BD05D9AF
:100A8000C01A0023DCE70C200BB0F0BD00200BB037
:100A9000F0BD00BFAFF300808D49FD1A07000000D4
:100AA00000CA9A3B1C1C002009CB3D8DD1E60000FA
:100AB0002DE9F047184D9DF820C095F8304014F00E
:100AC00001081ED195F82060DFF850E069851FFA13
:100AD00082F960F3451663F34204A9FB0E016CF33F
:100AE000C406912303FB091185F8304008A3D3E91C
:100AF000002385F82060FFF703FBE8624046BDE86D
:100B0000F0874FF00C084046BDE8F087AFF3008057
:100B10008D49FD1A07000000B41C0020002AE7845C
:100B20002DE9F047044600F1230190F8300094F8D5
:100B30002030C0F3400060F386138CB084F820307E
:100B40000CF08AF8668D94F820303F48E461002567
:100B5000A6FB0001912203F0790302FB061184F841
:100B60002030257036A3D3E90023C4E90555FFF7EB
:100B7000C7FAE36A656080460933A8F131029342FF
:100B80004FF0310132BF23612261E562C4E90215F1
:100B90000CF030F82D4D0694668D2D49DFF8B4C069
:100BA000DFF8B4E081462848651BA1FB0535A6FBAC
:100BB0000001912303FB06112369049300260BAF68
:100BC0004FF0020A1EA3D3E90023CDE907C7CDF8F1
:100BD00014E0CDF82CA00396FFF792FA10461946C0
:100BE0004FF47A720023FFF78BFA2D090435EDB22A
:100BF0002A4602904B46032100963046CDF80480E9
:100C00000BF026FF39460EF0D5FD054668B994F87D
:100C1000303043F0010384F830300FF03FFC0446DD
:100C200038B128460CB0BDE8F0870C200CB0BDE808
:100C3000F087504613F0F4F920460CB0BDE8F08779
:100C40008D49FD1A07000000002AE784B41C00202B
:100C50004FECC44ED1E60000D906010000000000B0
:100C60002DE9F04F90F8E55090F8E4C065458BB061
:100C700004468846174630D0ACEB050505F0030561
:100C8000022D0FD094F93960002E42DB94F84031E8
:100C900094F841219B1ADBB2012B54D000200BB0F9
:100CA000BDE8F08F94F8AC3194F8AD219A4206D0AB
:100CB00094F8AE2102F00601042900F0458594F86D
:100CC000E620013A052A00F22985DFE812F0AD039B
:100CD0007903F3022705AA020D0290F93960002E6C
:100CE000C0F22B8594F8663113F00109CCD194F849
:100CF0000D1194F80C218A4201F004800123023D79
:100D000084F8E63084F8E55094F8AC3194F8AD21DD
:100D1000CCE794F8D9000028B8D0022800F0D48499
:100D200006285BD0012800F0F58040F28343754A25
:100D3000754976481AF0DDFB404080F311884FF08A
:100D4000030002DFA2E772480AF01AFB002838D03D
:100D500094F84131013B84F8413103790222427118
:100D600043F003030371C271D4F8C43194F84221F3
:100D70000272D4F8C821B3B194F866118D0712D469
:100D800094F8BF11C9070ED4D4F8D0118B4201F0EA
:100D900026845AB91A7902F00302032A01F0AB86BD
:100DA000C4F8C83104E0002A01F00280D4F8CC3144
:100DB0001A68026018600368C4F8CC010BB9C4F863
:100DC000D401B4F8C80000287FF468AFB4F8C2308A
:100DD000012B40F2E887A4F8C8305FE7638EE18D0D
:100DE00094F8E8200B441F4412F00105BFB240F014
:100DF0007186B4F8EA30FF1A3A043FF547AF0EF0B7
:100E000091FC014600283FF441AF0068D4F8083156
:100E1000436094F93930C4F80811002BC1F2748290
:100E200094F8E43084F8E53094F8E82094F86030E1
:100E300094F86150B4F85E6012F01C0F03F00708DC
:100E400005F0070541F01B82B4F85C70C44612F04F
:100E5000E00F01F0118294F861304FEA521E6EF3F8
:100E6000020384F861304FF4A4764368C4F8083173
:100E7000930702D4E04501F0EF83238DCB801C2241
:100E8000002381F81DC081F81EE00A710B770EF077
:100E900019FCD4F80851002D01F03F822868002881
:100EA00001F03B82B4F85C304268C4F80821BB42D0
:100EB0000AD3B3F5A47F07D8B4F85E30B34203D3A6
:100EC000B3F5A47F41F2DB83A4F85C70A4F85E6004
:100ED0002B7F228DEA8043F0030309226A772B7768
:100EE000B4F85A30B4F858102B8403221523A9847F
:100EF0002A71EB7729466E84EF840EF0E3FB0EF047
:100F0000EBFBC3E65CFC010034F7010068F601006E
:100F1000901D0020668EE28D94F80E3116443E44FA
:100F200013F00703B6B240F03486B4F8E890A6EBAD
:100F3000090A1FFA8AFA1AF4004F7FF4A7AE94F850
:100F4000841194F8852194F80C0184F8D9308A42F0
:100F500084F80D0109D094F8862102F00F02062AC8
:100F600004BF84F88511A4F8C830CD4BD4F80851DB
:100F70001A68944204BF00221A60002D00F0FE8718
:100F80002868002800F0FA87B4F81031B4F82AC0B5
:100F90004268C4F808216345B4F81221B4F814116A
:100FA00001F03981B4F828C0A5F806C04FF0180E3A
:100FB0004FF0000CEB832A84698485F804E085F8FF
:100FC0001CC029460EF07EFB0EF086FBA368002BAA
:100FD0000ADAE268616823F000438A422CBF904439
:100FE0008844A360A8EB0308638DB4F8105113FB89
:100FF0000AF39BB2B3FBF5F11FFA81FB15FB0BF271
:1010000092B2934280F03D87D31AA64840F2E24262
:1010100002FB03F3A3FB00019FA3D3E90023FFF727
:101020006FF820F07F408044E38DA9EB06061F4453
:1010300094F939305E443E44002B40F2E247E685A5
:1010400007FB05F580F28F82A26C236C954E03FBA3
:101050001A23A36414F0C6FB814694F8D800C0F3A9
:10106000C20014F0C1FB09EB000305FB03F38E483B
:10107000A26C94F81C1103F5742303F23F23A0FB28
:1010800003034FEA934A0AFB0BF06B080244963BBA
:101090009A4207FB01FC28BF1A464FF0000EC4F825
:1010A00040A0C4E91132C4F850C07BA3D3E90023A7
:1010B000C4F8E0E0A0FB0601FFF722F87B4AD4F871
:1010C0001831A2FB03239B0A07FB03F7A8EB0008D8
:1010D00071A3D3E90023A7FB0601FFF711F8A5EBE5
:1010E0000A0A20F07F474DE2E18D638E94F8E820F4
:1010F0000B443B4412F001099DB2114640F0668357
:10110000B4F8EA3094F93960EB1A18043FF5BCAD35
:10111000002EC1F24582D4F8085194F8E43084F8E6
:10112000E53094F8603094F861A0B4F85E9012F065
:101130001C0F03F0070B0AF0070A41F09380B4F884
:101140005C6012F0E00F08D094F86130520962F34D
:10115000020384F861304FF4A479002D01F0A680D9
:101160002868002801F0A28094F861C094F86020FB
:101170004368C4F80831C2F30202CCF302038907C2
:101180005FFA82FC5FFA83FE02D4E34501F04282FB
:10119000218DE9804FF01C0C002129776A77AB770D
:1011A00085F804C029460EF08DFAD4F80851002DB8
:1011B00001F08E802868002801F08A80B4F85C3045
:1011C0004268C4F80821B3420AD3B3F5A47F07D814
:1011D000B4F85E304B4503D3B3F5A47F41F22E82C1
:1011E000A4F85C60A4F85E902B7F228DEA8043F027
:1011F000030309226A772B77B4F85A30B4F85810F1
:101200002B8403221523A984EE842A71EB772946C7
:10121000A5F822900EF056FA0EF05EFA94F93960B5
:1012200032E523480AF0ACF800283FF42BAD94F8DF
:10123000E43084F8E530012343710279D4E9713553
:1012400042F0030212210271C171002B00F0BA8535
:1012500094F86621920700F1B58594F8BF21D6076E
:1012600000F1B085D4F8D021934201F03684002DEE
:1012700001F09684D4F8CC311A68026018600368D3
:10128000C4F8CC01002B01F00D80B4F8C630A4F8EE
:10129000C83094F93960F7E48D49FD1A0700000061
:1012A000FC1C002000CA9A3B83DE1B435917B7D1B0
:1012B000901D002094F8F43013F0030500F05E83D5
:1012C00094F93930002BBFF6E1AC012D7FF421AD4C
:1012D00054480AF055F8054600283FF4D3AC03798A
:1012E0000D2243F003034FF0040900F108060371D7
:1012F000427180F807900C21304613F069FF3146A7
:10130000082204F1FE001BF04DFA4A4605F11001D7
:1013100004F198001BF046FAD4F8C431002B01F018
:10132000338194F86611D4F8C821890701F12E8120
:1013300094F8BF11CE0701F12981D4F8D0118B4266
:1013400001F06785002A01F07C85D4F8CC311A6859
:101350002A601D602B68C4F8CC51002B01F09E83DD
:101360000EF0E0F9054600283FF48CAC2B7F228D6F
:10137000EA8043F00303032217212B772A71EA77CF
:101380006977082204F2691105F120001BF00AFABE
:1013900094F8673185F8283094F8683185F8293059
:1013A000294628680EF08EF90EF096F994F8F4307C
:1013B00094F93960022262F3010384F8F43063E4A3
:1013C000638EE18D94F8E8200B443B4412F0010257
:1013D0009DB240F03383B4F8EE3094F93960EB1AE3
:1013E00018043FF551AC002EC0F2538794F8E43056
:1013F00084F8E53004F13405052204F1E9012846BA
:101400001BF0D0F9284605210AF082F994F83960DA
:10141000012360F3050684F8396084F8D83176B288
:1014200032E400BF901D0020B4F83290E28D94F8B1
:101430000E319144B94413F007031FFA89F940F0C3
:101440002A82B4F8E8A094F93960A9EB0A0B1FFAD4
:101450008BFB1BF4004F7FF417AC002EC0F23485D9
:1014600094F8E43084F8E53094F8842194F88531D8
:1014700094F80C1184F80D1193420AD094F8863137
:1014800003F00F03062B04D1002384F88521A4F870
:10149000C830C14BD4F808511A68944204BF0022E6
:1014A0001A60002D00F000852868002800F0FC84F8
:1014B000B4F81031668D4268C4F80821B342B4F81C
:1014C0001221B4F8141100F06985268DEE804FF0DA
:1014D000180C0026EB832A84698485F804C02E77D3
:1014E00029460EF0EFF80EF0F7F8A368002B0ADAA1
:1014F000E268616823F000438A422CBF904488442C
:10150000A360A8EB0308638DB4F8105113FB0BF331
:101510009BB2B3FBF5F18EB215FB06F292B2934289
:1015200080F09C84D31A9D4840F2E24202FB03F310
:10153000A3FB000196A3D3E90023FEF7E1FD20F011
:101540007F408044E38DAAEB09091F4494F93930A8
:10155000B144B944002B40F2E247A4F82E9007FBB7
:1015600005F5C0F2BA844FF433638D4A8D498E4835
:1015700019F0BFFF404080F311884FF0030002DFF5
:101580000027AA46B4F81421B4F81211874B8848F2
:10159000A18542F2107C0CFB02522B442844B3FB81
:1015A000F5F301F1060C013AB2FBF5F2B0FBF5F5EB
:1015B00098B2A4F8C2206045B4F81021A4F8CE0077
:1015C000A4F8C650628502DD401A063880B294F84D
:1015D0000E31A4F8CA00180744BF0023A4F8C43091
:1015E0000221012016F016FD002202218146012071
:1015F00009F06AFF4FF4F0726E49204609F0F6FEDA
:101600000530C5B26C4B00942A46012100200BF036
:10161000A9FA30F002030CD04FF43663604A6749F0
:10162000614819F066FF404080F311884FF00300D5
:1016300002DF5A4BAAFB03AB504655A3D3E9002364
:101640005946FEF75DFD5E4A2369049320F07F460C
:10165000A6FB0223072000FB0633BAEB02006BEB6C
:101660000301DFF860E1DFF860C1089406944FF4ED
:101670007A7200234FF6FE74CDF81CE0CDF814C04A
:101680000394FEF73DFD4346CDE9016000972A46ED
:10169000012100200BF0DCF930F002030CD040F601
:1016A0007A333F4A4549404819F023FF404080F3D0
:1016B00011884FF0030002DFB9F1000F40F0C28340
:1016C0006FF08B00FFF7EBBA638EE18D94F8E820A2
:1016D0000B441F4412F00102BFB240F0CA82B4F8BA
:1016E000EE30FF1A3B043FF5D1AA04F1340584F82B
:1016F000D92004F1E901052228461BF053F82846B9
:1017000005210AF005F894F83930012260F3050349
:1017100084F8393084F8D821FFF7B8BA40F2524340
:101720001F4A2049204819F0E4FE404080F3118808
:101730004FF0030002DFFFF7A5BA90F8D9000028A8
:101740007FF4E9AAFFF7CEBAC2F30205E9B207298E
:101750000DD0012606FA01F010F04E0C7FF4AFAA6E
:1017600010F0300F40F0E985002901F0D08040F6FC
:1017700062730B4A0B490C4819F0BBFE404080F3E2
:1017800011884FF0030002DFFFF799BAAFF3008032
:101790008D49FD1A07000000FC1C002000CA9A3B7E
:1017A0005CFC010034F7010068F601007FC3C90149
:1017B000FF596202980D00208D0D0100A8FD010067
:1017C0008D49FD1A350D0100493901000022D4E987
:1017D000190109F041FE814600287FF453AA022036
:1017E0000DF080FF824600283FF44CAAB64809F06D
:1017F000C7FD064600283FF445AA94F8E82069F39F
:101800000002D3B2C3F3820959EA531984F8E820DD
:1018100041F0D08194F8E420A4F8EA90990784F884
:10182000E52001F117824B4649460522727186F880
:10183000089073723279D4F8C431718142F0030296
:101840001820D4F8C8113271F071002B01F05580C6
:1018500094F86621920701F1508094F8BF21D507D2
:1018600001F14B80D4F8D021934201F08D830029FF
:1018700001F06884D4F8CC311A6832601E60C4F874
:10188000CC613368002B7FF4FDA9C4F8D46194F9CE
:101890003960FFF7F9B901200DF024FF0646002852
:1018A0003FF4F0A9884809F06BFD054600283FF495
:1018B000E9A9864B1A68002A00F0CB860DF032FFAA
:1018C0003268D4F808112B7951600C22C4F80861F1
:1018D0006A71D4F818217E4994F80E0143F003038D
:1018E0002B710026A38DEE71A1FB0212C2F38F2291
:1018F00094F81C1129724B44D4F8C411A5F809209E
:10190000B4F81021A5F80B200633B4F81221A5F87D
:101910000D209BB2B4F81421A5F80F2066F3020045
:10192000A4F8E83084F80E01A5F81130002900F081
:101930004E8394F866319B0700F1498394F8BF31D8
:10194000DE0700F14483D4F8D0319942D4F8C8318D
:1019500001F07281002B01F0D781D4F8CC311A68E4
:101960002A601D602968C4F8CC5100297FF48AA937
:10197000C4F8D45194F93960FFF786B9524809F098
:10198000FFFC064600283FF47DA994F93930002B6E
:1019900000F1040980F28C8594F87A3013F0080382
:1019A00040F02B8794F8F550002D00F0498702791C
:1019B00094F8D81042F00302C907027141F168801F
:1019C000D4F82821194602F0040050EA010301F07E
:1019D0005F80112203237572F27133727371D4F830
:1019E000C431002284F8F520002B00F0E58794F83C
:1019F0006621920700F1E08794F8BF21D50700F136
:101A0000DB87D4F8D0219342D4F8C82101F0D382E7
:101A1000002A01F06483D4F8CC311A6832601E6069
:101A2000C4F8CC613368002B01F0E38094F8E43013
:101A300084F8E53094F8D900FFF76DB9224809F031
:101A40009FFC064600283FF41DA9A38D027994F857
:101A5000E8102B440633A4F8EE306FF300010123A5
:101A600042F00302082084F8E81032717071F371BB
:101A7000052204F1E90130181AF094FED4F8C431BB
:101A8000B4F8EE20A6F80D20002B00F0318494F875
:101A90006611D4F8C821890700F12C8494F8BF118D
:101AA000CD0700F12784D4F8D0118B4201F09B813F
:101AB000002A01F0BC81D4F8CC311A6832601E6073
:101AC0003368C4F8CC61DDE6901D0020FC1C0020CA
:101AD0005917B7D10022D4E9190109F0BDFC064617
:101AE00000287FF4D3A802200DF0FCFD80460028DA
:101AF0003FF4CCA8D64809F043FC054600283FF443
:101B0000C5A894F8E82066F30002D3B2C3F38206B6
:101B100056EA531684F8E82041F06F8094F8E420E8
:101B2000A4F8EA609F0784F8E52001F1C7803346F6
:101B3000324605216B722E7269712B79D4F8C4116B
:101B40006A8143F003031820D4F8C8212B71E8718F
:101B5000002900F0938794F866319E0700F18E8784
:101B600094F8BF31D80700F18987D4F8D031994271
:101B700001F0D382002A01F0EE82D4F8CC311A6849
:101B80002A601D60C4F8CC512B68002B7FF47EA81E
:101B90006BE00DF0A7FD074600283FF477A8AC489E
:101BA00009F0EEFB054600283FF470A8A94B1A681F
:101BB000002A00F078850DF0B5FD3A682B79D4F84D
:101BC0000811516043F003030C22C4F808716A71D4
:101BD0002B71A38DD4F818219F4994F80E0133443A
:101BE0000026EE71A1FB0212C2F38F2294F81C11A1
:101BF0002972D4F8C411A5F80920B4F81021A5F869
:101C00000B200633B4F81221A5F80D209BB2B4F8CE
:101C10001421A5F80F2066F30200A4F8E83084F838
:101C20000E01A5F81130002900F0118394F86631F7
:101C30009F0700F10C8394F8BF31DE0700F10783A2
:101C4000D4F8D0319942D4F8C83101F02980002B62
:101C500001F0BF80D4F8CC311A682A601D60296871
:101C6000C4F8CC5100297FF411A8C4F8D451FFF76F
:101C70000DB8774809F084FB054600283FF406A814
:101C8000A38D027994F8E8101F44BB1DA4F8EE3030
:101C90006FF30001012342F00302082084F8E810EA
:101CA0002A716871EB71052204F1E90128181AF014
:101CB00079FDD4F8C431B4F8EE20A5F80D20002B3E
:101CC00000F0828394F86611D4F8C821880700F1E7
:101CD0007D8394F8BF11C90700F17883D4F8D0113F
:101CE0008B4201F06580002A01F00281D4F8CC31EA
:101CF0001A682A601D602B68C4F8CC51002B7EF452
:101D0000C5AFB2E794F8212194F82001824263D054
:101D1000121AD5077EF5B8AF94F8D83013F0010643
:101D200000F060830DF0FEFC0546002800F0818184
:101D300094F8203184F82131037F228DC28043F052
:101D400003030922032049462B7728716A77EA7733
:101D500005F1200008221AF030FDD4E94C23100CC4
:101D6000190C060A85F8243085F82360C3F307238D
:101D7000C2F3072685F82200080A85F8261085F8A0
:101D8000202085F8216085F8270085F82530294630
:101D900008680DF097FC0DF09FFC94F8E4C094F8EF
:101DA000E550FEF769BF0133A4F8C830FEF777BFEE
:101DB0000360C4E97100C4F8CC01002B7FF401A8D2
:101DC000FEF7FDBF002D7FF455AA0360C4E9710042
:101DD000C4F8CC01FFF756BA94F8392194F83801C9
:101DE000824200F02C81121AD3077EF54DAF94F891
:101DF0003A31DE0740F1F8859D0740F1E9850DF0A5
:101E000091FC0146002800F0148194F8383184F8E0
:101E10003931037F228DC28043F003030B77032007
:101E200006220C234A77CB77087194F83B01B4F86B
:101E30003C21B4F83E31A1F8233081F82000A1F80C
:101E40002120A5E701221046022109F03DFB37E4DD
:101E5000901D0020FC1C00205917B7D105FB113341
:101E600040F2E2429BB2C04802FB03F3A3FB000135
:101E7000BBA3D3E90023FEF743F9A8EB0008FFF763
:101E800061BB05FB113340F2E2429BB2B64802FB54
:101E900003F3A3FB0001B2A3D3E90023FEF730F95B
:101EA000A8EB0008FFF7C0B840F6B423AF4AB0492A
:101EB000B04819F01EFB404080F311884FF003003A
:101EC00002DF2868FFF7F4BA94F8D920002A3FF41B
:101ED000C7AA84F8D930FFF7C7BAA26C236CDFF821
:101EE000889203FB1B23A36413F07CFC824694F8C6
:101EF000D800C0F3C20013F077FC0AEB000305FB27
:101F000003F39D48A26C94F81C1103F5742303F2AB
:101F10003F23A0FB03034FEA934A0AFB06F06B083A
:101F20000244963B9A4228BF1A4607FB01F64FF03F
:101F3000000CC4F840A0C4E91132C4F8E0C088A382
:101F4000D3E90023A0FB09012665FEF7D9F88B4AE7
:101F5000D4F81831A2FB03239B0A07FB03F7A8EB75
:101F600000087FA3D3E90023A7FB0901FEF7C8F807
:101F7000A5EB0A0A20F07F47FFF704BB40F6B42325
:101F80007A4A7B497B4819F0B4FA404080F31188C3
:101F90004FF0030002DF2868FEF7F6BFA68D9642D9
:101FA0007FF493AA40F2E24606FB03FE42F210766B
:101FB00006FB01E6B4F8C2C0013EB6FBFEF6B6B2BF
:101FC000B4457FF482AA01232B71FFF789BAD4F8B4
:101FD000C831002B7FF4C1AC2960C4E97155C4F845
:101FE000CC51C2E494F8AC3194F8AD219A4200F09F
:101FF000748394F8AE2102F0070107290CD0012068
:10200000884010F04E0F7EF43FAE10F0300F40F0DD
:102010008B86002900F08D8540F66273534A58493B
:10202000544819F066FA404080F311884FF00300DD
:1020300002DF94F8E4C094F8E550FEF71DBE94F872
:10204000850194F884219042CCD0DFF83891D9F8FA
:102050000020002A00F0268594427EF415AE94F804
:10206000862102F00F02062A01F2008101A050F839
:1020700022F000BF89210000DD2000009120000037
:10208000790C0000790C0000790C0000790C00003C
:1020900098073EF5F9AD0DF045FB01460028C8D084
:1020A00094F886010B7F032262F30300134384F844
:1020B0008601208D0B7718234B77B4F88A31B4F85A
:1020C00088510A71C880B4F88E21B4F88C014B8411
:1020D0000F230D848884CA84CB7759E694F88751FE
:1020E000002D40F0E086002EC0F28B8794F88631F8
:1020F00094F89001C4F81851062262F303030122F8
:1021000084F81C2184F88631B4F88A21002801F073
:102110003380B2FBF0F313FB00F3B4F888019BB2F9
:10212000984288BF1346A4F8103194F80E31B4F8E1
:102130008C0194F88621A4F812010220C2F3001247
:1021400060F3020362F3C3030139B4F88E2184F80B
:102150000D1184F80E31A4F81421FEF797BD00BFCD
:102160008D49FD1A0700000000CA9A3B5CFC010083
:1021700094FD010068F6010083DE1B435917B7D1B7
:1021800034F70100FC1C0020C548658EE68D09F07F
:10219000F7F8014600283FF44CAF0379C9F8004036
:1021A00043F00303182242710371B4F8883100220E
:1021B000A819B4F88A51B4F88C610B81B4F88E3147
:1021C0000A744D813844B4F8C6508E81CB810F26F5
:1021D0004FF0FF33CA740A754B758B75CB750B7650
:1021E0004B768B76CB760B774B778B77CE71A4F8CB
:1021F000C850A1F8110094F88631042060F303035D
:1022000084F8863120460EF0FDFB94F8E4C094F883
:10221000E550FEF731BDB4F82CC094457EF4C2AE53
:1022200040F2E24C0CFB03FB42F2107C0CFB01BCC5
:10223000B4F8C2E00CF1FF3CBCFBFBFC1FFA8CFCC9
:10224000E6457EF4AFAE01232B71FEF7BABED4F89B
:10225000C831002B7FF4FEAC2960C4E97155C4F885
:10226000CC51FFE4C2F3820060F3020384F86030D3
:102270004FF4A476FEF765BFAE46FEF7F6BDC2F397
:10228000820C6CF3020384F860304FF4A477FEF7FD
:10229000DEBD94F8D930002B3FF4A8A884F8D920EB
:1022A000FFF7A8B8C4F8D401FEF7EFBF41F28C03E2
:1022B0007C4A7D497D4819F01CF9404080F3118823
:1022C0004FF0030002DF286894F8E810FEF74CBFD7
:1022D00041F2BB03734A7449744819F00AF940404B
:1022E00080F311884FF0030002DF2868FEF766BF15
:1022F000D4F8C821002A7FF4DEAB3360C4E97166EC
:10230000C4F8CC61FFF7BEBA94F8D930002B3EF484
:1023100087AD84F8D950FEF787BD41F2BB03614A0F
:102320006149624819F0E5F8404080F311884FF0A8
:10233000030002DF2868FEF7B5BD02F00700B4F81D
:10234000B0E1B4F8B411A4F85AE00428A4F85E107F
:10235000B4F8B261B4F8B65100F0C582062363F355
:10236000020284F8AE21D4F80891B9F1000F00F010
:10237000A081D9F80000002800F09B8199F81C305A
:102380004268B4F828C0C4F8082143F003030322CC
:1023900089F81C304FF0090A1523A9F806C0A9F8DE
:1023A00020E0A9F8221089F8042089F81F30494656
:1023B000A9F82460A9F8265089F81DA00DF082F92B
:1023C0000DF08AF9FEF77BBCD4F8C821002A7FF40F
:1023D0008DAC2B60C4E97155C4F8CC51002B7EF450
:1023E00055AC42E42E4808F0CBFF054600283FF4E8
:1023F00020AE94F821310922013B84F82131427149
:1024000094F939200379002AACBF08220E2243F048
:102410000303C27108223146037110441AF0CDF94A
:10242000D4E94A23100C190C060A2B73EE72C3F37D
:102430000723A872C2F30726080A2A726E72A973CC
:10244000E8736B73D4F8C431002B00F0218194F849
:102450006611D4F8C821880700F11C8194F8BF11D7
:10246000C90700F11781D4F8D0118B4200F0F38432
:10247000002A00F0BD85D4F8CC311A682A601D60AE
:102480002B68C4F8CC51002B00F02483B4F8C6307C
:10249000A4F8C83094F8E4C094F8E550FEF7ECBB1B
:1024A000901D00205CFC010094FD010068F6010015
:1024B00004F17B0A53462A4604F1F60104F2711036
:1024C00015F0C6F85146102204F19C001AF06AF982
:1024D000082204F1940104F1B5001AF063F994F8AC
:1024E000930094F8B42094F87A3084F88B5043F039
:1024F000080365F3000042F0010284F8930084F8B9
:102500007A3084F88C5084F88D5084F88E5084F89A
:102510008F5084F8905084F8915084F89250C4F809
:10252000AC504946C4F8B05084F8B42020460EF0B0
:1025300079FCD4F8C431002B62D094F86611D4F839
:10254000C8218D075ED494F8BF11C8075AD4D4F8B7
:10255000D0118B4200F08D84002A00F02285D4F83F
:10256000CC311A6832601E603368C4F8CC61002B2D
:1025700000F09C8094F8F43094F9396043F0030340
:1025800084F8F430FEF780BBD4F8C821002A7EF42A
:10259000DCAE2B60C4E97155C4F8CC51FEF7DDBE4A
:1025A0000DF0C0F8054600283EF46CAB0368D4F883
:1025B00008215A6094F9393094F8E820C4F80801E9
:1025C000002BA8BF1146BEF6A8AD94F8D93011462D
:1025D000002B3EF4A2AD84F8D990FEF7A2BD196895
:1025E000C4F8D011002A7EF4E1AB1A6802601860CA
:1025F0000368C4E97200002B7EF4E3ABFEF7DFBB97
:10260000D4F8C821002AAAD13360C4E97166C4F89D
:10261000CC61ACE7F2457EF4BBAD01232B712946BA
:102620000DF050F8D4F80851002D00F09D84286872
:10263000002800F099844368C4F8083101232B7105
:1026400029460DF03FF80DF047F894F93960FEF790
:102650001BBB1C60FFF732B975457EF40EAC01233D
:102660000B710DF02FF8D4F80851002D00F0B08454
:102670002868002800F0AC844368C4F808310123BE
:102680002B7129460DF01EF80DF026F8FEF7FEBA64
:10269000D4F8C821002A7FF4EEAE2B60C4E971554E
:1026A000C4F8CC51EFE61C60FFF785BAC4F8D461DA
:1026B00060E740F63873C84AC849C94818F019FF9E
:1026C000404080F311884FF0030002DFD9F800008A
:1026D000B4F85AE0B4F85E1050E694F8BCE194F80F
:1026E000BD1171453EF4D0AA94F8BE1101F003006B
:1026F000032800F2B78501A656F820F00D27000048
:10270000790C0000790C000075270000B54808F02E
:1027100037FE014600283FF48CAC94F8BE5194F883
:10272000BF0194F8C02194F860C0012363F3010550
:10273000EBB2C3F38206C0F34000C3F3421360F36D
:10274000C30C66F30202087984F8BE5163F3C50234
:1027500084F8C02140F003000325162284F860C0ED
:102760000871CA710E724B724D71002220460EF034
:1027700049F98BE6C1F38200860784F8BDE140F198
:102780002085022060F3840184F8BE1194F8BE1104
:102790004809860740F10C85022060F3471184F850
:1027A000BE1194F8BE1194F860E094F861C094F8FA
:1027B000E800C1F382060EF0070EB64508BF0026FA
:1027C0000CF0070C490966F384008C4508BF002112
:1027D00061F3471094F8BF61C1B241F00101C6F343
:1027E000800060F34101023D062084F8E55084F842
:1027F000E81084F8E600FEF759BA494620460EF084
:1028000011FBD4F8C431002B63D094F86611D4F8CE
:10281000C82188075FD494F8BF11C9075BD4D4F8E6
:10282000D0118B4200F03383002A00F06B83D4F880
:10283000CC311A6832601E60C4F8CC61336896E609
:1028400004F17B094B462A4604F1F60104F27110AB
:1028500014F0FEFE4946102204F19C0019F0A2FF7C
:10286000082204F1940104F1B50019F09BFF94F8DB
:10287000932094F8B41094F87A3084F88B5042F096
:10288000010265F3000143F00803012084F893205E
:1028900084F8B41084F87A3084F88C5084F88D5021
:1028A00084F88E5084F88F5084F8905084F89150BA
:1028B00084F89250C4F8AC50C4F8B05032797071BA
:1028C000D4F8C43142F0030205213271F171002BBA
:1028D0009BD1D4F8C821002AA9D13360C4E971661C
:1028E000C4F8CC61AAE7B4F8B801002840F014811C
:1028F00084F8AD31A4F8C80035E500297EF4BAAFFC
:102900003360C4E97166C4F8CC61FEF7BABF3548DC
:1029100008F036FD00283EF4D2A994F8AE31B4F8A0
:10292000B211B4F8B621A4F8D210A4F8D42066F3FA
:102930000203027984F8AE3109264671D4F8C43115
:10294000457242F0030245F01B064FF0140C027171
:1029500045F0480245F001058181D4F8C81180F89E
:1029600007C0067282728273C572C573002B00F0B5
:10297000CA8094F86621950700F1C58094F8BF21BC
:10298000D20700F1C080D4F8D021934200F08483B4
:10299000002900F0F583D4F8CC311A680260186081
:1029A000C4F8CC010368002B00F0B881B4F8C6303D
:1029B000A4F8C830FEF783B9D4F8C821002A7FF400
:1029C0002AA83360C4E97166C4F8CC61FFF72AB85D
:1029D00040F62D53FFF722BB5CFC010094FD010083
:1029E00068F60100901D0020CE4808F0C9FC0028C0
:1029F0003FF41FAB94F8392194F83A31013A84F846
:102A00003921027943F00103062184F83A3142F07A
:102A100003024171D4F8C43102710C216FF00E022F
:102A2000C1710172427205214FF0FF328172C27290
:102A30000273002B00F0A98094F86621910700F141
:102A4000A48094F8BF21D20700F19F80D4F8D02150
:102A50009342D4F8C82100F05483002A00F06A831E
:102A6000D4F8CC311A6802601860C4F8CC0103684D
:102A7000002B7FF40BADC4F8D40107E5002A7FF4E6
:102A80007CA82960C4E97155C4F8CC51FFF77CB823
:102A90000D23F37135720223FEF7A0BFC4F8D451A1
:102AA000FEF75EBC94F8862102F00F02062A00F2BF
:102AB000DD8301A050F822F089210000DD20000014
:102AC00091200000890C0000890C0000890C000096
:102AD000890C0000C4F8D451D8E41A68C4F8D02195
:102AE000002D7EF4C7AB1A68026018600368C4E961
:102AF0007200FEF7C7BBDA79032A3FF476AD0A2AE3
:102B00007EF44EA971E500297FF445AF0360C4E966
:102B10007100C4F8CC0145E76CF30202B4F8BA3195
:102B200084F8AE21A4F8B201A4F8B8C1A4F8B63173
:102B300019E47C4808F024FC00283FF47AAA94F8B1
:102B4000AE31B4F8B251B4F8B621A4F8D250012194
:102B5000A4F8D42061F30203092284F8AE31427153
:102B60000279D4F8C431858142F003021426C1727F
:102B7000C173002502711B214822C6714572017282
:102B800082728273002B7FF457AFD4F8C821002AD9
:102B90007FF466AF0360C4E97100C4F8CC0166E756
:102BA0001A7902F00302032A00F02B81C4E9723380
:102BB000FEF760BBA38D2B440633A4F8EA300CF07B
:102BC000B1FDDAF80030D4F808215A60C4F808A141
:102BD0000CF0A8FD0368D4F808215A6094F8E83096
:102BE000C4F80801C3F38209B4F8EA105B09FEF7E0
:102BF0001CBEC4F8D461FEF719BFA38D1F44BB1DD2
:102C0000A4F8EA300CF08EFDD8F80030D4F8082192
:102C10005A60C4F808810CF085FD0368D4F80821D7
:102C20005A6094F8E830C4F80801C3F38206B4F897
:102C3000EA205B09FEF77DBF0A68C4F8D021002BAB
:102C40007EF48BAE0B682B600D602968C4E9725569
:102C5000FEF78BBE0CF066FD228D8AF81C9094F86E
:102C60006030AAF80620C3F302038AF81D3094F8F6
:102C70006130DAF80000C3F302031C228AF81E3028
:102C800051468AF804200CF01DFD0CF025FD94F847
:102C9000E830B4F8EA10C3F382095B09FEF7C5BD5A
:102CA0000A68C4F8D021002B7EF4D4AF0B682B60E7
:102CB0000D602968C4E97255FEF7D4BF0CF032FDEF
:102CC000228D88F81C6094F86030A8F80620C3F3C1
:102CD000020388F81D3094F86130D8F80000C3F37F
:102CE00002031C2288F81E3088F8042041460CF0AC
:102CF000E9FC0CF0F1FC94F8E830B4F8EA20C3F3F6
:102D000082065B09FEF715BF0B7903F00303032B63
:102D100000F01A81C4E97211FEF71FBEC4F8D40195
:102D200044E600BF901D002002F00702B4F8B00195
:102D3000B4F8B411A4F85A00042AA4F85E10B4F848
:102D4000B291B4F8B66100F0F58094F8AE31062285
:102D500062F3020384F8AE31D4F80851002D00F07C
:102D6000DA802868002800F0D6802B7F4268C4F8FB
:102D7000082143F003030921228D2B776977B4F8EA
:102D80005A30B4F85E10EA802B840322152369843C
:102D90002A71EB772946A5F82490EE840CF092FC7A
:102DA0000CF09AFC94F8E4C094F8E550FDF764BF89
:102DB0001968C4F8D011002A7EF498AF1A682A6006
:102DC0001D602B68C4E97255002B7DF45FAFFEF7E0
:102DD0004CBF0B7903F00303032B00F0BD80C4E963
:102DE0007211FEF737BF1968C4F8D011002A7EF4BB
:102DF00062AE1A6832601E603368C4E97266FEF71C
:102E000041BDDA79032A3FF46EAE0A2A7FF4CEAED2
:102E100069E61968C4F8D011002A7EF496AA1A68E7
:102E20002A601D602B68C4E97255FEF796BA1A79BC
:102E300002F00302032A00F0D581C4E97233FEF7E1
:102E40003ABE1A7902F00302032A00F03981C4E97C
:102E50007233FEF77ABA1968C4F8D011002A7FF4E9
:102E60000AAB1A682A601D602B68C4E97255FFF727
:102E70000ABB1968C4F8D011002A7FF470AB1A6835
:102E800032601E603368C4E97266FFF770BB196870
:102E9000C4F8D011002A7FF4CAAC1A6832601E60F0
:102EA000C4E97266CAE4CB4808F06AFA0146002811
:102EB0003FF4BFA8037943F003030B7111200322F1
:102EC0000F23C8714A710B7294F887314B7200223C
:102ED00020460DF097FD94F8843184F88531002365
:102EE000C9F8003094F8E4C094F8E550FDF7C4BE8A
:102EF0001A7902F00302032A00F0DA80C4E972337F
:102F0000FEF7F4BE1A7902F00302032A00F02C81C6
:102F1000C4E972338BE440F63873AF4AAF49B04826
:102F200018F0E7FA404080F311884FF0030002DF09
:102F300028681AE7B4F8B821002A40F0298184F8FB
:102F4000AD31A4F8C82007E7CB79032B3FF47AAE64
:102F50000A2B7FF4DFAE75E6CB79032B3FF4A6AEE8
:102F60000A2B7FF43CAFA1E641F29E039A4A9B49AB
:102F70009B4818F0BEFA404080F311884FF00300E0
:102F800002DF2868FFF757BB1A68C4F8D021002970
:102F90007EF470AC1A6832601E60C4E97266FEF797
:102FA00070BC1A7902F00302032A00F0A280C4E97F
:102FB0007233FFF7D4BA1968C4F8D011002A7EF42E
:102FC0002AAD1A6832601E60C4E97266FEF72ABD37
:102FD00041F29E03804A8149814818F08AFA4040B4
:102FE00080F311884FF0030002DF2868FFF744BB2D
:102FF0001A7902F00302032A6AD0C4E97233FFF798
:103000003ABA744808F0BCF9014600283FF411A808
:103010000379182243F0030303714271B4F8883135
:10302000B4F88A210381B4F88C314281B4F88E213E
:1030300083811023C281C37194F890310374B4F872
:103040009231B4F89421A0F81130B4F89631A0F878
:103050001320B4F89821A0F81530B4F89A31A0F8EC
:103060001720B4F89C21A0F81930B4F89E31A0F8CC
:103070001D30A0F81B202A4620460DF0C3FC94F812
:10308000863194F8E4C094F8E550052262F3030316
:1030900084F88631FDF7F0BD1A68C4F8D021002904
:1030A0007FF479AC1A6802601860C4E9720079E4B0
:1030B000DA79032A3FF482AE0A2A7FF41FAF7DE655
:1030C000DA79032A3FF4ABAE0A2A7FF4C0AEA6E653
:1030D000DA79032A3FF4C5AE0A2A8ED1C1E61A79FD
:1030E00002F00302032A00F08F80C4E97233FEF776
:1030F00092BCDA79032A3FF4C2AE0A2A7FF457AFB2
:10310000BDE61968C4F8D011002A7FF4A9AC1A688A
:1031100002601860C4E97200A9E40B68C4F8D031F9
:10312000002A7EF42AAD0B682B600D60C4E972554D
:10313000FEF72ABD1A7902F00302032A6CD0C4E913
:1031400072338DE41A7902F00302032A6BD0C4E9CA
:103150007233FEF78FBB0B7903F00303032B70D0A0
:10316000C4E97211FEF709BDDA79032A3FF495AE7E
:103170000A2A7FF4CDAE90E6A4F81021FEF7D5BF61
:103180001A7902F00302032A54D0C4E9723302E42C
:1031900094F8AE11B4F8BA01A4F8B221002363F395
:1031A000020184F8AE11A4F8B831A4F8B601D3E551
:1031B000C6071FD5012060F3471184F8BE11FFF741
:1031C000F0BAC60744D5012060F3840184F8BE112B
:1031D000FFF7DCBA901D00205CFC010094FD0100AB
:1031E00068F60100DA79032A3FF403AE0A2A7FF475
:1031F00024AEFEE510F0040018BF042060F3471170
:1032000084F8BE11FFF7CDBADA79032A3FF4D9AEBC
:103210000A2A7FF46AAFD4E6DA79032A3FF477AF5B
:103220000A2A8CD173E7DA79032A3FF4B3AE0A2A6B
:103230008DD1AFE6DA79032A3FF434AF0A2AA4D15C
:1032400030E7CB79032B3FF46EAF0A2B88D16AE7C6
:1032500010F0040018BF042060F3840184F8BE114C
:10326000FFF794BA40F6DC73FEF7D8BE40F65E6313
:10327000FEF7D4BE000000002DE9F04F037F0E687A
:1032800097B00F461546C3F3801300F11E010446A4
:10329000062214A8D6F800908DF847302E6819F051
:1032A00081FA97F81280B8F1FF0F0DF1480B5BD04F
:1032B0005A460DF14701404610F002FE9DF8473096
:1032C00002338DF847302146032251F82E3B0A93F2
:1032D00005F1080005F1040A19F064FA05F1180374
:1032E000042204F12A0150460B9319F05BFA0B9B60
:1032F0000522184604F13A0119F054FA0B9B0521F6
:10330000184608F005FA94F83F20697F00F03F0066
:1033100060F30501C2F30403AB776977A18EE981FD
:103320000128DBB289B205D91B3303F01F030B2B35
:1033300000D8F9B995F82030E6680A98002262F3BF
:1033400000030127C9F81420214685F82030277191
:103350000CF0B8F93146306837710CF0B3F90CF065
:10336000BBF917B0BDE8F08F5846062214A919F032
:1033700019FAA8E73B6896F8D8004FF0000CC3F89C
:1033800004C094F837C094F8363043EA0C232B82FB
:10339000638E0E93520940F2E24362F3C50086F851
:1033A000D80003FB01F20B9212F01CFA0C9096F875
:1033B000D800C0F3C20012F017FA0C9A0B9BDFF88A
:1033C000F8C294F83110B5F810E0104403FB00F097
:1033D00000F5742000F23F20ACFB00C04FEA530C14
:1033E00040F2E24303FB01F3800CACF1960168620A
:1033F000AB63A962218F0B98A54AADF83E108C46AD
:1034000042F2107303FB0C0301460244B2FBF0F2DC
:10341000A0480EF1060C4118013B0B98B3FBF0F3EA
:10342000A6F8C23093B20C9163450146A6F8CE309F
:103430000C98B0FBF1F1A6F8C61003DDA3EB0E0368
:10344000063B9BB25146A6F8CA30042206F1DC00C6
:1034500019F0A8F94FF48072237FA283C3F34013BD
:1034600099F826008DF8303011F07CFA9DF8303054
:103470000D930146062204F12B00002900F0E280A2
:1034800004F1240119F08EF9B8F1FF0F04F12500C1
:1034900000F0DB8014A9062219F084F99DF847306A
:1034A000A3775946062204F11F0019F07BF996F81C
:1034B000D830E9892A8AA286C3F3C20384F8383057
:1034C000BDF83E30E386618630460DF0DBFD2146D7
:1034D000A881E0807C680A980CF0F4F8AB89E3805E
:1034E0001B2323710D9BD4F80080002B40F0BA8081
:1034F0009DF830302377214640460CF0E3F80CF07D
:10350000EBF895F84500B5F84080B5F84240012148
:1035100000F0070011F088FF04EB0803824603F572
:10352000E1735D48002453443122A3FB0001C6E946
:103530000224746054A3D3E90023FCF7E1FDFB6887
:103540000E9A6D6A40F2E24808FB023820F07F4094
:103550000B9B30612246022101205D1B07F0B4FF66
:1035600048460CF081FF821CD2B22046CDF8009074
:103570004A4B012109F0F6FA08F2B2480128A8EBFB
:103580000A087AD099F82430DB0763D430460DF06E
:1035900079FDDFF804B1A5FB0B453BA3D3E900237C
:1035A000814629462046FCF7ABFD3D4A069620F0B1
:1035B0007F4AAAFB0223072101FB0A3340F2AB1129
:1035C000BF6808913749079137490591A01A65EB03
:1035D00003013369049300244FF47A7200230394A7
:1035E000FCF78EFD28A3D3E900230290A8FB0B0172
:1035F000CDF804A0FCF784FD09F1050920F07F4017
:103600005FFA89F93A3F00903B464A46204601213D
:1036100009F01EFA30F002030CD040F2AD13234A39
:103620002349244817F065FF404080F311884FF08C
:10363000030002DF01221046022107F045FF17B008
:10364000BDE8F08F19F0B9F81EE70622002119F045
:10365000B4F823E70023012200931846114609F02D
:1036600081FA93E76B7F43F040036B77504610F08D
:1036700089FA0123E88323773DE70CF0DBF88145E5
:1036800080D010F03DF97DE78D49FD1A070000005C
:103690007FC3C901FF59620200CA9A3B2D3901005C
:1036A0008D49FD1AD13801004939010080FE010021
:1036B000A8FD010068F6010083DE1B4370B50378A6
:1036C0008AB004460E4607AD032B20D8DFE803F08E
:1036D00002191B1D1149284619F01BF86378049341
:1036E000A3780393E378029323790193637900939A
:1036F0000595A3790A4A1E21304617F007FF0AB044
:1037000070BD0849E7E70849E5E70849E3E7084AE3
:103710000A21284617F0FAFEE0E700BF1C07020066
:103720003E070200230702002A07020034070200B6
:10373000EA1B020030B58BB002A91C46FFF7BEFFA2
:1037400002A9134817F0D5FE20461249124C0DF17C
:10375000070204F017F8114B9DF807501868197903
:103760006DB1036901251B6805FA01F21A420CBF0D
:103770002A46002217F062FE25700BB030BD0269A8
:10378000012312688B40134214BF01220022F1E78B
:103790007108020055B40100F126002064010020E8
:1037A00030B500230D4D0E4889B01A46022104F0B1
:1037B000D1FB0FCD03AC0FC42B6823600023009313
:1037C0000222074903A804F027FD044618B1014668
:1037D000044817F08EFE204609B030BD00F201000B
:1037E00068F20100CD06020010B504F047FD044662
:1037F00018B10146024817F07CFE204610BD00BFFC
:10380000F306020008B5FFF7EFFF044B044800225F
:103810001A700321BDE8084017F06BBEF2260020A5
:103820009008020010B586B00021142201A818F0FB
:10383000C4FF0C4B0C480122CDE9022317F059FEBE
:103840000A4901A804F0DEFE044630B101460848EA
:1038500017F04FFE204606B010BD064817F049FE8F
:10386000F8E700BF60003000FC08020035370000B8
:10387000170902003809020000B58BB0002300933D
:103880000146CDF8033028B1094817F032FE0BB0DD
:103890005DF804FB074817F02CFE02A96846FFF705
:1038A0000DFFFFF7BFFF0028F1D102A90248ECE7A6
:1038B00061070200810702009807020010B504F0BA
:1038C00067FF044618B10146024817F012FE204671
:1038D00010BD00BF4E09020073B5294C0B2140F208
:1038E0001112204617F084FD014630B122682548A8
:1038F0000B2317F0FEFD01243FE02369A5681B6838
:10390000AE6913F4006F14BF4FF400334FF48023FB
:103910000B214FF4A0322046B047236801930146A3
:1039200018B10B23019A1848E3E71849184B4B606C
:103930004FF400638B60EB6913B101222046984776
:10394000144D154801990B2217F0D3FD2868002863
:10395000D1D06A79297942F4007217F049FD2B79A8
:10396000044620B12A68014612680C48C1E729685C
:103970000B4809681A4617F0BCFD204602B070BD1E
:103980007CEE0100A9070200D207020058110020B6
:103990006DB4010064010020080802002408020040
:1039A000580802002DE9FF47494817F0A2FD494891
:1039B00003F052FE20B10024204604B0BDE8F08799
:1039C000FFF78AFF04460028F5D1434D2B68002BF2
:1039D00079D0424EDFF82C81374603A9404617F0D4
:1039E00021FD10B90398C0F3C0200028DFF818911A
:1039F0003060D4BF0020012089F8000003A92868A6
:103A00002C7917F00FFD30B90123039AA34013421C
:103A100014BF01200020324BDFF8F0A0186000280E
:103A2000304BD4BF002201221A70DAF800203B6824
:103A30009A4215D099F80030002BCED00028CCDC6B
:103A4000294817F056FDFFF739FF04460028B3D187
:103A5000FFF7A6FE04460028AED13B68CAF8003046
:103A600099F80040002CB8D12048DFF8A49017F056
:103A700040FD2346224602211D48CAF8004004F0BA
:103A800069FA012322461B491B4889F800301BF0C4
:103A90000EF800220023CDE90023174800234FF43D
:103AA000C03217F081FB99F80030002BFDD1FFF7F1
:103AB000B9FE044600287FF47FAFFFF795FE044669
:103AC00000288AD078E70D490D4817F012FD73E7FA
:103AD000B908020079380000640100206411002058
:103AE00068110020F1260020C7080200D708020054
:103AF00068F2010005380000D0070020C806020067
:103B0000E80802007CEE0100F026002060010020A1
:103B1000F22600200B6801330B60014B1B6818472D
:103B20006C010020014B1860704700BF6C01002041
:103B300007B50023019302460B46034801A900F094
:103B4000F7F803B05DF804FB153B000030B585B015
:103B5000CDE901010446002501A90548039500F0BF
:103B6000E7F8DDE902309842B8BF255405B030BD12
:103B7000CDB401002DE9F84FB0F8189019F00808FD
:103B800004460DD001290CBF49F0100949F0200965
:103B9000A0F8189082F31188BFF36F8FBDE8F88FFB
:103BA00009F00709022907D1204617F0BCFC0028BC
:103BB000F0D00128238B4AD16769238B002F15DAB7
:103BC0002568C4E9008823F0070343F00103238339
:103BD0000026238B03F0070ACA4502D0A1680029FA
:103BE00056D10DB9002E6DD0002152E003F007012F
:103BF000481F01281CD823F00703062925689BB21B
:103C0000C4E900880AD13DB1618B284600680131C2
:103C100089B20028FAD1618343F00203238320464E
:103C200017F081FC0028D3D0238B43F02003CEE78C
:103C300004290AD123F0070399B22183204617F003
:103C400072FC10B141F0200121830025C0E7032858
:103C500009D1216923F007030E6843F0060323838B
:103C600000252F46B5E7042806D1216923F0070374
:103C70004E6843F00403F2E7052806D1216923F0DA
:103C800007038E6843F00503E9E700252E46E8E7C1
:103C9000012143F00803238382F31188BFF36F8F60
:103CA000F9B985BB16B121492046B0474FF0200332
:103CB000EFF3118283F31288BFF36F8F238B23F00E
:103CC00008032383238BD90627D523F010032383EE
:103CD0000121B4F8189009F0070900297FF462AFB8
:103CE00058E7A1680029DCD0D1F80090D1F804B0E1
:103CF0003B4652462046D847B9F1000FD1D049463D
:103D0000D9F80090F2E7D5F8009029463B46524694
:103D1000204617F024FC4D46C3E713F020011EBFD8
:103D200023F0200323830221D3E700BF8BB50100DA
:103D30002DE9F04F93B08A46039093461C46002528
:103D40009BF8000008B928461AE325280BF1010763
:103D500007D05146039B98470028C0F211830135D4
:103D600002E2182200210CA818F027FD9BF8013070
:103D7000252B7CD00022CDE90422BC46104691467A
:103D8000164690461746964663461CF8011B2B299B
:103D900000F09F8000F29580202900F09D8023296B
:103DA00000F09D802FB19DF838706EF382078DF87A
:103DB00038702EB19DF8386068F3C3068DF838600E
:103DC00028B19DF8380069F304108DF83800049884
:103DD00028B19DF8380040F020008DF8380032B14D
:103DE0009DF83820059860F386128DF838209DF8EC
:103DF000382002F04400442803D16FF386128DF876
:103E000038209DF838202A2942F080028DF8382089
:103E100040F081805A1C9DF8393043F001038DF841
:103E2000393013782E2B9DF839300CBF0121002139
:103E300061F341038DF8393079D153782A2B6FD053
:103E4000013200210A26104610F8013BA3F1300789
:103E5000092F40F293809DF838301091C3F3400051
:103E600040EAD17161F341038DF838305FE00BF126
:103E700002078DF83B309DF83930DE0740F11B8199
:103E800054F8049BB9F1000F07DA9DF8382042F08E
:103E900004028DF83820C9F10009580740F1148157
:103EA000234653F8048BB8F1000F80F227819DF868
:103EB00039206FF341028DF839201C464FF0FF384E
:103EC00007E12D290ED030297FF46CAF0122059235
:103ED0005AE70126B04657E70120814654E70123FF
:103EE000049351E70127BE464EE70CFB0101303930
:103EF0003246164616F8010BA0F13007092FF4D907
:103F000093428ED09DF838300F91C90F61F3410371
:103F10008DF8383085E71A4600214FF00A0CE8E7A3
:103F20009DF8393043F004038DF8393002321746DA
:103F300017F8013B6A2B47D025D84C2B50D0682B63
:103F40002ED0174617F8012B8DF83B20672A9DF8D5
:103F5000393060D8652A55D2582A00F098804CD85C
:103F6000412A4FD002D3453A022A4BD99DF8383026
:103F700043F001038DF8383000236AE006FB01317D
:103F8000303902465FE7742B26D07A2B20D06C2B79
:103F9000D7D153786C2B9DF8393013D1042105E02B
:103FA0005378682B9DF8393006D1012161F3C6039F
:103FB0008DF83930971CC5E7022262F3C6038DF8ED
:103FC0003930BFE70322F8E79DF839300522F4E7DE
:103FD0009DF839300622F0E79DF839300722ECE7EA
:103FE000BDF8383023F4F04323F0020343F4804358
:103FF00043F00203ADF83830A4E7632A47D012D863
:10400000612AB3D19DF83A30042262F302038DF89D
:104010003A3001231DE0702A2CD024D86E2A3AD0E1
:1040200035D8692AA2D19DF83A10012003F078030F
:1040300060F30201402B8DF83A1002BF9DF8381052
:1040400041F001018DF83810632A95D1003318BF73
:1040500001239DF83820C2F340010B4363F3410272
:104060008DF8382007E7752A11D0782A0FD0732AE7
:104070007FF47CAF9DF83A20032113F0780F61F3B1
:1040800002028DF83A2014BF01230023E1E79DF8D6
:104090003A100220CAE79DF83A2003F07803A3F112
:1040A000400C032161F30202DCF100038DF83A2099
:1040B00043EB0C03CDE79DF93820002AB4BFDDF8AF
:1040C0003C904FF0FF39E8E699077FF5F7AEDDF851
:1040D00040809DF839200023CDE90F339DF83A3018
:1040E00003F00703012BC2F3C3023FD1D31E042BFD
:1040F00014D8DFE803F0050D0D1313001C46E8E7A4
:10410000234653F8040BC117CDE90C011C461CE0F3
:10411000073424F00703F3E80201F5E72346012AF8
:1041200053F8040B4FEAE071CDE90C011C4605D1B0
:104130009DF830300C9300230D9306E0022A04D141
:10414000BDF93000C117CDE90C019DF8383013F0EE
:1041500003063FD03B465A465146039817F0B4FD3C
:104160000028C0F20D810544BB46E9E5022B20D1B1
:10417000D31E042B0ED8DFE803F00309090D0D0050
:1041800020680C900021231D0D91BFE7E31D23F053
:104190000703C0E72346012A53F8041B0C914FF094
:1041A00000010D911C46C3D0022ACED1BDF830309B
:1041B000C0E7042B07D1E31D23F00704F4E8020154
:1041C000CDE90C01C1E7032BBFD1234653F8041BF3
:1041D0000C919BE79DF83B006E2800F0A9803DD82C
:1041E000632872D022D825283FF4B3AD5828BBD11C
:1041F0000DF12E0300930EAA06ABDDE90C0117F0BA
:1042000016FD8346B8F1000F0DF12E000CDB9DF872
:104210003820A0EB0B036FF3861298458DF83820F9
:1042200002D9A8EB03030F93804646E0642801D02F
:10423000692899D11A0779D413F0100F0CBF002602
:104240002026DDE90C23002A73F10001D0DA524266
:1042500063EB4303CDE90C232D26C9E7732820D057
:104260001BD86F28C4D070287FF47EAF0C9800282C
:1042700073D00DF12E0300930EAA06AB314617F052
:10428000D6FCBDF83A3003F0EF0343F4F04343F0BB
:1042900010038346ADF83A30B4E77528A8D07828E3
:1042A000A5E7B8F1000FDDF830B00ADB414658460B
:1042B00018F053FA0BEB00080026BBF1000F0BD1EE
:1042C00052E7584618F042FAF4E70C9B8DF8183084
:1042D0000DF119080DF1180BA8EB0B0306B1013312
:1042E0009DF83A20D0063ED5023352060F9948BFBA
:1042F000109A0B4448BF9B18B9F1000F4DDD9DF893
:104300003820A9EB0309C2F380030493002B44D1A6
:10431000500638D546B151463046039B9847002891
:104320002EDB049B01351E4630232DE02B2688E72B
:104330000C9B072A3FF618AFDFE802F00D04060DCC
:1043400008080D0D1D700FE71D800DE72846E917C1
:10435000C3E9000108E71D6006E7DFF8C8800646EC
:10436000A8F1050BB8E7110748BF0133BDE71846B0
:1043700004935146039B984700284A46049B05DA5C
:1043800013B0BDE8F08F20234A464D44002AA5EB28
:10439000020102F1FF39EADC0D4636B151463046E2
:1043A000039B98470028EBDB01359DF83A30D9068E
:1043B00001D41A0706D551463020039B98470028A0
:1043C000DEDB01359DF83A30DB0607D551469DF816
:1043D0003B00039B98470028D2DB01350F9E2E44FB
:1043E000731B002B16DC43465A465146039817F0C0
:1043F0006BFC0028C4DB0544A944A9EB0503002B92
:104400007FF7B2AE51462020039B98470028B7DBC8
:104410000135F2E751463020039B98470028AFDB77
:104420000135DDE77A09020030B5002289B00F4975
:104430000F481AF03CFB0F4D0F4900220023CDE935
:10444000062300240E23CDE90334CDE90144009472
:104450000A4B4FF44072284615F0CCFD0849284617
:1044600019F0CDFF204609B030BD00BF85440000E3
:104470000808002040080020E02B00208D480000A4
:104480007B090200014815F04FBF00BF80060020E5
:104490000C4A002310B513700B4A13600B4B0C4AE7
:1044A0001A604FF4004000F0B1FC00F06DFA0948CA
:1044B00017F021FC0823482207490848BDE81040AE
:1044C00019F053BFF4260020701100207001002065
:1044D00035BD010078110020A84A0020801100207D
:1044E00070B5124BBFF35B8F53E8005F6A1C43E863
:1044F00000210029F8D1BFF35B8F2DB90C4C0D4E74
:10450000361B3611B54200DB70BD237B53B12368E7
:104510009B690BB1204698476368042219682046BE
:1045200000F024FA01351034ECE700BF74110020CC
:10453000B0F10100D0F1010010B54FF02003EFF30E
:10454000118483F31288BFF36F8F044817F0E3FBE5
:1045500084F31188BFF36F8F10BD00BF7811002066
:1045600010B5044C227812B9034815F0DDFE012382
:10457000237010BDF326002080060020064BBFF3F9
:104580005B8F53E8002F013243E800210029F8D166
:10459000BFF35B8F704700BF70110020064BBFF365
:1045A0005B8F002053E8002F43E800010029F9D178
:1045B000BFF35B8F1046704770110020F8B5FFF70E
:1045C000EDFF0A4C0A4D2D1B07462D110026AE4269
:1045D00000DBF8BD63685B792BB123681B6913B1FD
:1045E00039462046984701361034F0E7B0F1010013
:1045F000D0F10100164B984237B5044602D3154B53
:10460000984220D30022002301A9134815F090FC02
:104610000546D8B90122019BBFF35B8F53E8001F09
:1046200043E800200028F9D1BFF35B8F01982146B1
:104630004122043018F077F8019C7E2384F845303D
:1046400084F846500434204603B030BD034CFAE7EA
:104650008CED0100601F020080110020C7090200DC
:1046600050B1064B984206D303F5107398422CBF05
:104670000020012070470020704700BFA84A00209A
:10468000444B1B782DE9F74F054603B900B3FFF7FC
:1046900053FF044678B1BFF35B8F3F4B53E8002FC5
:1046A000013A43E800210029F8D1BFF35B8F9DB1A7
:1046B000204617F044FC2DB9384B1B68002B01DD58
:1046C000FFF77CFF364817F024FB051C18BF0125B7
:1046D000284603B0BDE8F08F324B1B78ABB9237A84
:1046E000DB0712D417F03EFC8146204617F007FC8A
:1046F0000146484617F022FB2B4B2C4ADFF8C4B08A
:104700009B1A0746C3F3C90A37B9294E294FBF1B65
:104710003F114FF000083AE0B7FA87F6C6F11F06DE
:104720003146204617F0EEFB234B9842024602D357
:10473000224B98421AD31046FFF792FFB0B9204B94
:104740009A4213D06189890900F002F928F03F03E9
:1047500043F0010363F307086AF38F180246ADF8CC
:1047600000804B463146584617F041FB012303FABF
:1047700006F627EA0607C7E773685B7923B1336853
:1047800021465B683046984708F101081036B84565
:10479000F2DB8DE7F32600206C1100207011002061
:1047A00078110020F426002078F1010060F001006B
:1047B000B0F10100D0F101008CED0100601F02009A
:1047C000C709020087090200294B37B51B684181E0
:1047D00004469847E0604FF02003EFF3118583F320
:1047E0001288BFF36F8F2348214617F088FA85F3AC
:1047F0001188BFF36F8FBFF35B8F1F4B53E8002F00
:10480000013243E800210029F8D1BFF35B8F1B4A36
:10481000127882B14FF02003EFF3118483F31288F2
:10482000BFF36F8F0020FFF72BFF84F31188BFF3D6
:104830006F8F03B030BD124A1B681268002AF8D08F
:10484000012B0AD100220023CDE900230D484FF4AB
:104850000042002316F0A8FCEBE70A2BE9D1094837
:104860001AF031F9084803B0BDE8304015F05CBDDE
:1048700070010020781100206C110020F426002027
:104880009C110020080800208006002010B5FFF7CA
:1048900027FE16F049FA0C4B186030B10B4B1B6821
:1048A000092B02DD0A4815F03FFD094C0020FFF7F7
:1048B000E7FE0028FAD14FF0FF324FF0FF332046D9
:1048C00015F058FDF2E700BF9C1100206C1100208C
:1048D00080060020F8B50E4F3D7875B90D4C0E4E90
:1048E000FFF7FEFD361B3611B54207DB0020FFF750
:1048F000C7FE0028FAD101233B70F8BD63685B79DD
:104900001BB1236820465B69984701351034EBE7FB
:10491000F4260020B0F10100D0F1010007B5043801
:104920000190BFF35B8F50E8003F5A1E40E8002122
:104930000029F8D1BFF35B8F012B03D101A90348F4
:1049400019F02EFD03B05DF804FB00BF80110020BC
:10495000044A054B9B1AB1EBD30F34BF52F8310018
:104960000020704760F00100B0F10100054B426883
:10497000C31A1B11013313714368012219605A7164
:10498000FFF7EEBDB0F1010020231A4601490248AD
:1049900019F0EBBCE84C0020A011002037B5002333
:1049A000094D01930120FFF76BFE0446FFF7E6FD7A
:1049B0000022002301A9284615F0BAFA08B1002CFC
:1049C000F0D1019803B030BDA011002007B500233D
:1049D00001930022002301A9054815F0A9FA10B19E
:1049E000FFF7DCFF0190019803B05DF804FB00BF06
:1049F000A0110020F0B5047A457A85B014F00104C6
:104A000001904FEA15151BD1D5B1264631460198C4
:104A100017F078FA0746FFF723FE70B134B9019B0F
:104A20002946186917F08AF9044648B124FA06F3B2
:104A3000D90702D53846FFF771FF0136AE42E5D3FC
:104A4000019B1A7A920704D55B69084C0393039B78
:104A50002BB901A9054819F0A3FC05B0F0BD1D68EC
:104A600003A9204619F09CFC0395F0E7A011002053
:104A70000EB403B503AB014653F8042B044801936D
:104A8000FFF756F902B05DF804EB03B0704700BFC2
:104A90000DC301002DE9F04F87B0924611F00204DA
:104AA00001F0010207469DF84080BDF9489005924B
:104AB00001F0080507D011F0440F38D11A463249E9
:104AC000FFF7D6FF0446059B53B1304B304953F8EE
:104AD0002820304B3846002A08BF1A46FFF7C8FF87
:104AE0003DB12D4B2D4953F828203846FFF7C0FF24
:104AF0000546B9F1000F16DBBAF1000F41D00123D2
:104B000003FA08F8264B274E18F0100F18BF1E4660
:104B100049469DF84400FFF71BFF314602463846E0
:104B2000FFF7A6FF0544281907B0BDE8F08F1E4A1D
:104B3000116821B31D4A4FF4616C1468B3FBF4F3A0
:104B40004FF47A76B3FBF1F4B4FBFCF20CFB124C9D
:104B500001FB143474434FF03C0EB4FBF1FB01FB3A
:104B60001B44BCFBFEF37443B4FBF1F1CDE901B18E
:104B70000EFB13C100910E49FFF77AFFA2E708462A
:104B8000A0E7084EC4E700BF2B0A020078F201003C
:104B90008D0802001D0A02008CF20100500A02007A
:104BA000270A0200220A0200BC110020C0110020C6
:104BB000340A020038B50C46E107054603D5084A19
:104BC0000849FFF755FFE20608D4A30628464CBF64
:104BD00005490649BDE83840FFF74ABF38BD00BF68
:104BE0001D0A02008D0802000F0A02000E0A0200D0
:104BF0002DE9F0479846089BDD0604460E46174609
:104C000005D499064CBF29492949FFF731FFDFF840
:104C1000A890002545452ADBDFF8A080DFF8A090AA
:104C2000DFF894A00025AF422ED9725D4946204698
:104C3000FFF71EFF0135102D1FD11E49DFF87880C8
:104C4000DFF880902046FFF713FF0025AF4227D9F9
:104C5000725DA2F120035F2B28BF2E224946204619
:104C6000FFF706FF0135102D13D1BDE8F087494647
:104C70002046FFF7FDFE0135CCE76A07D3D1514648
:104C80002046FFF7F5FECEE741462046FFF7F0FE4F
:104C9000D0E76B07DAD141462046FFF7E9FED5E7BA
:104CA00041462046FFF7E4FEDCE700BF0F0A0200A2
:104CB0000E0A0200EB090200E9090200E7090200FE
:104CC000E1090200ED0902002DE9F0478B7A13F0AB
:104CD000070417468AB005460E460A7A1CD0498951
:104CE000C3F3C2038909D2430291CDE9004302F024
:104CF0000102F3683946FFF7CDFE8146337ADA07C1
:104D00000CD42946304617F097F94CB32246394661
:104D10002846FFF74FFF23E0A146EFE734BB2746C5
:104D2000EB68069306AA3B46A968304617F070F96F
:104D3000069A6B681A603AB1AB68134413F8014CD9
:104D4000A4F10A035C425C41284617F0D2FA069BA4
:104D50001F44002BE4D11CB114492846FFF788FEFC
:104D6000284617F0C6FA0AB0BDE8F087304617F0BB
:104D7000F9F80F4902462846FFF77AFE4FF000087F
:104D80004FF0100A05AA434606A93046CDF814A0F4
:104D900017F03EF9059A002AB8D04B46009706A9AD
:104DA0002846FFF725FF059B9844EBE7F009020032
:104DB0008D08020073B542F20F738B4228BF0B4679
:104DC00005680F4A04460521684616F09FFB636894
:104DD0000C495B6806460B22284617F020F96368E9
:104DE0003246694628465B6817F019F96368064938
:104DF0005B681B22284617F012F902B070BD00BF95
:104E0000B5130200110A0200F2090200084A10B5A7
:104E10000123084C13600021A04204D801B11360A3
:104E2000054B186010BD40085B000121F4E700BF8E
:104E3000C011002040420F00BC110020F8B5074F00
:104E40000D4604464618B44201D12846F8BD3868DC
:104E500014F8011B83685B689847F4E7D8110020B9
:104E6000014B024A1A607047D81100204CEE010035
:104E7000014817F03EBA00BFBCF201000148FFF73D
:104E800099BF00BFBCF2010010B508460C4617F0F0
:104E900029F8214604480F22FFF716FF2046BDE8F7
:104EA000104017F04CB800BFBCF20100014B0122CA
:104EB0001A70704706270020024B034801221A701F
:104EC00017F017BA07270020E8F201000148FFF7A2
:104ED00071BF00BFE8F2010010B508460C4617F09C
:104EE00001F8214604480F22FFF7EEFE2046BDE8F8
:104EF000104017F024B800BFE8F20100054B1B7802
:104F00001BB141F2883019F0A5BDA420002115F095
:104F1000F1BE00BF072700202DE9F84FDFF8988089
:104F2000DFF8989007460E460424C34698F80050D0
:104F3000DDB94FF0FF334FF0FF32484615F0FAF875
:104F400032463946284614F0D1FD8246484615F0CF
:104F50006FF9184DBAF1000F1FD001232B709BF889
:104F600000306BB93046BDE8F88F32463946002034
:104F700014F0BCFD8246ECE75CB92C704FF0FF34B6
:104F8000002014F0FFFD0028ECD02B78002BF3D18B
:104F9000E8E7013CFFF7B2FFF2E72B7813B1013CE1
:104FA00004D12C702B78002BC0D1DBE7FFF7A6FFD4
:104FB000F8E700BF06270020072700206C06002026
:104FC000F8B506464FF02003EFF3118583F31288FE
:104FD000BFF36F8F094B1C685CB1094FD4E90132F4
:104FE000002E08BF13460BB1387898472468002C70
:104FF000F4D185F31188BFF36F8FF8BDF011002055
:10500000F81100201FB50F4B1A68BAB901221A60B7
:105010000D4A07CA01AB83E807000C4A4AB193E87E
:10502000070017F0E9FB002005B05DF804EBFFF77F
:10503000C7BF82F31188BFF36F8FF4E705B05DF847
:1050400004FB00BF74010020F8110020F9C7010023
:1050500070B588B06D4601460646284617F071F9CE
:1050600095E80700174C84E80700207838B3164B02
:1050700000211960731C0DD014484FF40043002127
:10508000E3FB0201124A0023FBF73AF80121301A30
:1050900019F0C0FC15F0B2FB0120FFF791FF94E876
:1050A000070005AB83E807000A4A1AB193E8070036
:1050B00017F08FFBFFF7A6FF15F068FD207808B00A
:1050C00070BD00BFF8110020740100203F420F00A6
:1050D00040420F00D3C70100F0B5284E07460C46EA
:1050E0000FCE8DB001AD0FC50FCE0FC596E80700EE
:1050F00085E80700002F3CD0002C3CD0381F21460B
:10510000024610344B780D781B0443EA0563CD78D2
:105110002B438D78043143EA05238C4242F8043F47
:10512000F0D1174C04218A07036918D14FEA336381
:105130001A0EA55CDAB2A25C42EA0562C3F3074527
:10514000C3F30723655DE35C42EA054242EA0322BA
:105150000CAD21F003032B4453F82C3C534050F882
:10516000042F013153402C290361DCD101200DB003
:10517000F0BD3846FBE72046F9E700BF14F2010016
:105180009D0A02002DE9F043154689B00746002824
:1051900059D000295AD0002A5AD010230A4668460E
:1051A000194617F0D3F829466846DFF8A89017F09B
:1051B000E5F805F11006C846A0356C466A4610238E
:1051C0001178013B19F8011002F8011BF8D168466B
:1051D00017F019F9694604A817F04EF901A905A8B6
:1051E00017F04AF902A906A817F046F903A907A87B
:1051F00017F042F9102319460DEB0302684617F029
:10520000A5F831466846103617F0B8F8AE42D4D14A
:1052100010262378013E18F8033004F8013BF8D13A
:10522000684617F0F0F82946684617F0A7F81023EB
:1052300019466A46384617F089F868461022314602
:1052400017F091F8012009B0BDE8F0830846FAE7AD
:105250001046F8E79D0A0200014910220A607047D3
:1052600010ED00E072B6404080F31188BFF36F8FFD
:10527000BFF34F8F30BF62B6BFF36F8F704700BF71
:1052800072B6494081F3118820BF80F3118862B65D
:10529000704700BF73B506460C46002938D001227E
:1052A0004FF0000362F307031D4D1E4A1E48AD1A5E
:1052B000C5F3C90565F38F13ADF80030D1E90123BB
:1052C000096816F094FD01224FF0000362F3070312
:1052D00065F38F13ADF80030D4E90423E168134877
:1052E00016F085FD01234FF0000263F3070265F31A
:1052F0008F12E1690E4816F04EFD4FF000020123B7
:1053000063F3070265F38F12A1690A4816F043FDA3
:105310002146304602B0BDE8704014F0A5BC00BF85
:1053200090F1010060F001009D0B0200CC0B020027
:10533000FB0B02000A0C020043B2002B08DB012227
:1053400000F01F0002FA00F05B09024A42F8230055
:10535000704700BF00E100E043B2002B0DDB0122EB
:105360005B0900F01F0002FA00F02033034A42F804
:105370002300BFF34F8FBFF36F8F704700E100E052
:105380004209054B00F01F0053F82220012303FAC5
:1053900000F01040704700BF00E100E043B2002B76
:1053A000A8BF03F1604301F101014FEA4111AEBF13
:1053B00003F5614300F00F00034BC9B2ACBF83F8A3
:1053C00000131954704700BF14ED00E008B572B621
:1053D000044B986918B100229A6119F017F862B667
:1053E00008BD00BF9826002030BFFFF7FDBF00BFFB
:1053F0000F4A08B50F4B22F07F029A60BFF34F8F20
:10540000BFF36F8FD3F8882022F47002C3F888208E
:10541000EFF3148323F0040383F31488BFF36F8F37
:1054200014F0D6FC15F0FAFC00F0B8FB14F0DAFC2E
:105430000000000000ED00E0094A0A49936809688D
:10544000D967094998674B6843F080534B60002344
:1054500083F31188BFF36F8F9368D86F704700BFD5
:1054600098260020B006020000ED00E012498A688C
:105470004FF030001044EFF3098C80E8F01F20203B
:1054800080F31288BFF36F8F0C4F4FF00066CA692C
:105490008A603E60906F0023936780F3118804B5A3
:1054A000104600F0BDFBBDE8044002F1300090E87A
:1054B000F01F8CF3098870479826002004ED00E067
:1054C0001EF0040F0CBFEFF30880EFF30980816931
:1054D00011F8021C0229FFD001B517F00BF901BD2C
:1054E00042F8203C009B42F81C3C0A49019B42F8D0
:1054F000183C029B42F8143C21F001014FF08073EC
:1055000042F8043C42F8081C0023203A02658367F5
:10551000704700BFC7B601000B4B0246986890B1B8
:1055200012F1160F806E05D0A0F12003934206D829
:10553000824204D281422CBF0021012100E00021DF
:10554000002908BF002070479826002008B5094BA5
:1055500098600D46144600F063FB204685F30988E9
:10556000002163B681F31188BFF36F8F00220023FF
:1055700016F0A9F89826002001B572B60B4A90697A
:1055800000281EBF0021916118F040FF62B6EFF3C2
:105590000580A0F110004FEAC0000549014409C987
:1055A0009847BDE8014003490847000098260020BD
:1055B000ACEE0100B9550000044B9968D8698842E7
:1055C00003D003494FF080520A60704798260020AC
:1055D00004ED00E02DE9F843012389464FF0000176
:1055E00063F30701444C454BE41AC4F3C9048046F5
:1055F00064F38F114248174616F0C0FB414B9B6A7B
:10560000D80609D54FF00001012363F3070164F3C5
:105610008F113D4816F0B2FB3A4B9B6A190709D52A
:105620004FF00001012363F3070164F38F11374842
:1056300016F0A4FB334DAB6A9A072ED46FF0150613
:10564000304B9B6ADD0709D54FF00001012363F35E
:10565000070164F38F112E4816F090FB294B9B6ACB
:10566000980609D54FF00001012363F3070164F3A5
:105670008F11284816F082FB224B9A6AD1062DD44E
:105680009A6A92072AD400201E4A936A43F0FF03C5
:10569000936200233B70BDE8F88301234FF00001C3
:1056A00063F3070164F38F111B4816F067FB6E6B01
:1056B000AB6A1B06C2D54FF00002012363F3070259
:1056C00064F38F123146154816F065FBB9F1000FEF
:1056D000B6D0AB6A23F08003AB62B1E75B681B0511
:1056E000D1D541463046FFF717FF0028CBD080F3D5
:1056F00009880220C8E700BF90F1010060F00100B6
:10570000C00C020000ED00E0D60C0200090D020002
:105710004A0D0200690D02001C0D0200340D02004A
:1057200001234FF0000110B563F30701334C344BF4
:105730003448E41AC4F3C90464F38F1116F01EFB55
:10574000314B9B6A9A0109D54FF00001012363F3A5
:10575000070164F38F112D4816F010FB2A4B9B6A4A
:10576000DB0109D54FF00001012363F3070164F366
:105770008F11274816F002FB234B9B6A180309D5AB
:105780004FF00001012363F3070164F38F112148F7
:1057900016F0F4FA1C4B9B6A590309D54FF000012F
:1057A000012363F3070164F38F111B4816F0E6FA37
:1057B000154B9B6A9A0309D54FF00001012363F34F
:1057C000070164F38F11154816F0D8FA0E4B9B6A47
:1057D000DB0309D54FF00001012363F3070164F3F4
:1057E0008F110F4816F0CAFA074A936A6FEA03430B
:1057F0006FEA13439362002010BD00BF90F10100D7
:1058000060F00100980D020000ED00E0B00D020014
:10581000C30D0200DD0D0200FB0D0200200E020090
:105820003A0E0200F8B501230E464FF0000163F373
:1058300007013C4C3C4BE41AC4F3C90464F38F11D8
:1058400007463A4816F09AFA394B9B6AD90409D5AB
:105850004FF00001012363F3070164F38F11354812
:1058600016F08CFA324B9B6A1A0509D54FF00001ED
:10587000012363F3070164F38F112F4816F07EFABA
:105880002B4DAB6A9B051CD501234FF0000163F340
:10589000070164F38F11294816F070FAA96BAB6AFF
:1058A00018040ED54FF00002012363F3070264F3DE
:1058B0008F12234816F06FFA1FB1AB6A23F400432E
:1058C000AB621B4B9B6A590509D54FF000010123C0
:1058D00063F3070164F38F111A4816F04FFA144B63
:1058E0009A6AD20511D54FF00001012363F3070135
:1058F000154864F38F1116F041FA0D4A936A00209F
:1059000043F47F4393623070F8BD9B6A9B04F4D5E7
:105910004FF00001012363F3070164F38F110B487B
:10592000E9E700BF90F1010060F00100380C0200CF
:1059300000ED00E04E0C0200090D02005F0C0200B9
:10594000780C02008D0C0200A80C0200690D020008
:105950002DE9F041794B5F688AB0C7F30804002550
:1059600085F31188BFF36F8F02F07F43B3F17F4F50
:1059700011D102F00C03082B0FD101234FF00001CD
:1059800063F307016E4A6F4B6F489B1ADB0863F3A2
:105990008F1116F0F3F92E4604E012074EBF0E46A3
:1059A0000646012500238DF80730E31E092B00F27F
:1059B000A880DFE803F00591958EA6A6A6A6A69975
:1059C00001234FF0000163F307015E4F5C4B5F481A
:1059D000FF1AC7F3C90767F38F1116F0CFF9574ABB
:1059E000D46A4FF0000814F002048DF807800AD042
:1059F0004FF00001012363F30701554867F38F114E
:105A000016F0BCF929E0D36A002B23DA4FF000012D
:105A1000012363F3070167F38F114E4816F0AEF9C7
:105A20009DF807309BB92022314602A816F0BAFE35
:105A3000099B002D7CD0C3F3080222B96FEA5323DF
:105A40006FEA4323099302A92046FFF723FC0AB01B
:105A5000BDE8F081D36A5B0001D40024E0E70123B4
:105A60004FF0000163F3070167F38F113A4816F016
:105A700085F9B36933F8022C4DF602739A420DD0C2
:105A800003F1604303F626631B78A3B10DF107020F
:105A900001213046FFF79EFD0446C1E701234FF088
:105AA000000263F3070267F38F1231682B4816F088
:105AB00072F93468B4E72A4B1B782BB10DF107015A
:105AC0000120FFF7AFFEE7E7264B1B889BB2002BB8
:105AD000C3D0FFF725FEDFE70DF107020021D8E76D
